:020000040000FA
:040000000BEF30F0E2
:105E4800016E01C083FF1200080ED56ED58E1200B8
:105E5800070E93160F0E951212006BC001F06CC05E
:105E680002F01200016E01500F0B300F1200016E8C
:105E780001380F0B0F0B300F120082868288BEECA0
:105E880030F08298BEEC30F0120082868298BEEC28
:105E980030F08288BEEC30F01200F2A456EF2FF0FA
:105EA80058EF2FF051EF2FF0120094929494030EB4
:105EB800CA12CA840C0EBD120C0EBA121200D89067
:105EC8000134036E0234046E031E041E0E0E035EBC
:105ED800000E045A0450D76E03C0D6FFF294120085
:105EE80001500302F3CF05F0F4CF06F0015004028D
:105EF800F350062602500302F350062605C001F0AF
:105F080006C002F01200480E016EE80E026E010E85
:105F1800036E000E046E0FC005F010C006F0076A8D
:105F2800086A76EC35F00104CB6E1200076E8482A5
:105F3800075024EC2FF08494000E026E030E016EBD
:105F4800EEEC30F08492000E026E030E016EEEEC61
:105F580030F084821200076E8482075024EC2FF000
:105F68008484000E026E030E016EEEEC30F0849213
:105F7800000E026E030E016EEEEC30F08482120009
:105F8800000000000102060E0000000000000000F2
:105F9800000000000001031E000000020C100000B9
:105FA8000F07030100000000111F1F1C0000000064
:105FB8001C10000000000000000E026E020E016EB0
:105FC800000E046E000E036E61EC37F0000E026ED8
:105FD800030E016E000E046E000E036E61EC37F0C6
:105FE800000E026E040E016E000E046E000E036EAB
:105FF80061EC37F0000E026E050E016E000E046EA5
:10600800000E036E61EC37F0000E956E1200880EDC
:10601800F66E5F0EF76E000EF86E01EE00F010EEF1
:1060280038F00900F5CFEEFFE550E150FAE1FE0E39
:10603800F66E640EF76E000EF86E00EE80F010EE4D
:1060480080F00900F5CFEEFFE550E150FAE100EEEF
:106058005DF0200EEE6AE806FDE1000EF86E000124
:10606800AFEF39F0106E0F50D8A43DEF30F03FEF8E
:1060780030F041EF30F010C070F00F04D8A447EFB3
:1060880030F049EF30F04BEF30F010C06FF0020EF7
:106098000F18D8A452EF30F054EF30F056EF30F02C
:1060A80010C06EF0030E0F18D8A45DEF30F05FEF4C
:1060B80030F061EF30F010C06DF0120084928494DB
:1060C800000E026E140E016EEEEC30F08482380E73
:1060D8009AEC2FF0000E026E050E016EEEEC30F019
:1060E800380E9AEC2FF0000E026E010E016EEEECE7
:1060F80030F0380E9AEC2FF0080E9AEC2FF00F0EB5
:106108009AEC2FF0010E9AEC2FF0380E9AEC2FF043
:10611800800E9AEC2FF01200076E8296000E086E21
:1061280008500708056E07C006F0052A9EEF30F0F4
:10613800D8900632052E9CEF30F0010E0616063A6E
:1061480082500618EF0B0618826E8286BEEC30F07D
:106158008296082A070E0864B4EF30F0B6EF30F0E4
:1061680094EF30F08288BEEC30F08286BEEC30F0DE
:1061780082961200000E026E000E016E000E036E73
:10618800280E0364CAEF30F0CCEF30F0CEEF30F0D9
:10619800E0EF30F0000E046E020E0464D6EF30F02B
:1061A800D8EF30F0DAEF30F0DDEF30F0042AD0EF3E
:1061B80030F0032AC4EF30F0014A022A025009E104
:1061C800050E015CD8A0EBEF30F0EDEF30F0C2EF38
:1061D80030F01200000E046E000E036E14EF31F062
:1061E800000E056E280E0564FCEF30F0FEEF30F06F
:1061F80000EF31F012EF31F0000E066E020E066469
:1062080008EF31F00AEF31F00CEF31F00FEF31F019
:10621800062A02EF31F0052AF6EF30F0034A042A85
:106228000150035C02500458D8A01DEF31F01FEF55
:1062380031F0F4EF30F012000A6E010ECB24016E3B
:10624800026A000E02220AC003F0046A74EC2FF0FE
:1062580001C00BF002C00CF00BC001F00CC002F042
:10626800000E046E190E036E56EC31F001C00BF0EF
:1062780002C00CF0FF0E0B16030E0C160BC008F034
:106288000CC009F0D89009320832D8900932083287
:106298000850BE6E0BC008F0030E08160838F00B45
:1062A800BD121200000E066E000E056E035004109B
:1062B800D8B461EF31F063EF31F08BEF31F0010EBC
:1062C800076E6BEF31F0D89003360436072A04AE18
:1062D80070EF31F072EF31F067EF31F0D89005369A
:1062E80006360350015C04500258D8A07EEF31F006
:1062F80080EF31F085EF31F00350015E0450025A0F
:106308000580D89004320332072E72EF31F005C0B1
:1063180001F006C002F012000F6E010E9AEC2FF089
:10632800800E9AEC2FF05F0E086E7F0E096ECBEC94
:1063380031F0C00E9AEC2FF00E50AFEC2FF0DF0EBC
:10634800AFEC2FF0E30E086E7F0E096ECBEC31F048
:10635800900E9AEC2FF0C80E086E7F0E096ECBECEB
:1063680031F0990E9AEC2FF00F50AFEC2FF0D00EC1
:106378009AEC2FF0D10E086E7F0E096ECBEC31F03F
:10638800D90E9AEC2FF00D50AFEC2FF01200000E42
:106398000C6EE8EF31F00C5008240A6E000E09204C
:1063A8000B6E0AC0F6FF0BC0F7FFF86A050EF7641C
:1063B80003D00800F55005D0F6CFE9FFF7CFEAFF84
:1063C800EF50AFEC2FF00C2A0C5008240A6E000E88
:1063D80009200B6E0AC0F6FF0BC0F7FFF86A050E1E
:1063E800F76403D00800F55005D0F6CFE9FFF7CFE2
:1063F800EAFFEF500009D8A404EF32F006EF32F0BC
:10640800CFEF31F01200000E0A6E000E096E2DEF6C
:1064180032F0000E0B6E280E0B6415EF32F017EFFA
:1064280032F019EF32F02BEF32F0000E0C6E020E44
:106438000C6421EF32F023EF32F025EF32F028EF31
:1064480032F00C2A1BEF32F00B2A0FEF32F0094A18
:106458000A2A07C001F008C002F0030E046EE80E15
:10646800036E74EC2FF00150095C02500A58D8A052
:1064780040EF32F042EF32F00DEF32F01200400EF2
:106488009AEC2FF020EEB0F010EE08F02F0EDBCFD4
:10649800E3FFE806FCE2400E9AEC2FF0000E386E9F
:1064A800080E3824D96EDA6A000EDA22DF50AFEC13
:1064B8002FF0382A2F0E386464EF32F066EF32F08E
:1064C80054EF32F09D0E9AEC2FF0000EAFEC2FF047
:1064D800010EAFEC2FF0020EAFEC2FF0DD0E9AECB0
:1064E8002FF0030EAFEC2FF0040EAFEC2FF0050EDB
:1064F800AFEC2FF0120000000010181C1E0F04044F
:106508000E0E1F1F1F1F0000000103070F1E0700AC
:106518000300000000001F001F001F0E00001C00E9
:106528001800000000000103030E1C180808111FC2
:1065380000011F12141F1018180E07030202081872
:106548001C0E0303010012141F08001F1100020390
:10655800070E1818100000030408101F00000F1879
:10656800000000180F001C07000000071C00001F97
:10657800010204180000076E000E086E82969488C7
:106588008288000E096E8286BEEC30F0095007083A
:10659800056E82B8D2EF32F0D6EF32F0066A062ADC
:1065A800D7EF32F0066A052ADCEF32F0D8900636CB
:1065B800052EDAEF32F0065008128296092A070EE5
:1065C8000964E9EF32F0EBEF32F0C7EF32F094985C
:1065D8000750D8B4F2EF32F0F4EF32F0F7EF32F0C0
:1065E8008298F8EF32F08288BEEC30F08286BEECFA
:1065F80030F0829608501200000E0E6E0ABE09EFA7
:1066080033F007EF33F00FEF33F0096C0A1ED8B000
:106618000A2A010E0E6E0CBE16EF33F014EF33F09B
:106628001AEF33F00B6C0C1ED8B00C2A0B500C1060
:10663800D8B421EF33F023EF33F047EF33F0010EF6
:106648000D6E2BEF33F0D8900B360C360D2A0CAEAE
:1066580030EF33F032EF33F027EF33F00B50095CB3
:106668000C500A58D8A03BEF33F03DEF33F041EF20
:1066780033F00B50095E0C500A5AD8900C320B328A
:106688000D2E32EF33F00E50D8B44DEF33F04FEFFC
:1066980033F053EF33F0096C0A1ED8B00A2A09C048
:1066A80009F00AC00AF01200000E066E04BE61EF7F
:1066B80033F05FEF33F067EF33F0036C041ED8B0AC
:1066C800042A010E066E02BE6EEF33F06CEF33F053
:1066D80074EF33F0016C021ED8B0022A010E061ABC
:1066E800000E086E000E076E03500410D8B47FEF3A
:1066F80033F081EF33F0A9EF33F0010E056E89EF27
:1067080033F0D89003360436052A04AE8EEF33F002
:1067180090EF33F085EF33F0D89007360836035002
:10672800015C04500258D8A09CEF33F09EEF33F080
:10673800A3EF33F00350015E0450025A0780D8904B
:1067480004320332052E90EF33F00650D8B4AFEF81
:1067580033F0B1EF33F0B5EF33F0076C081ED8B063
:10676800082A07C001F008C002F0120020EEE0F08D
:1067780010EE0DF01F0EDBCFE3FFE806FCE2400E43
:106788009AEC2FF0000E2E6E0D0E2E24D96EDA6ABA
:10679800000EDA22DF50AFEC2FF02E2A1F0E2E64E7
:1067A800D8EF33F0DAEF33F0C8EF33F0930E9AEC0A
:1067B8002FF0000EAFEC2FF0010EAFEC2FF0020E11
:1067C800AFEC2FF0030EAFEC2FF0BE0E086E7F0E6D
:1067D800096ECBEC31F0000E2D6E000E2E6E000E01
:1067E800026E960E016EEEEC30F0180E9AEC2FF059
:1067F8002E2A120E2E6403EF34F005EF34F0F3EF77
:1068080033F0000E2E6E000E026E960E016EEEEC48
:1068180030F01C0E9AEC2FF02E2A130E2E6417EF70
:1068280034F019EF34F007EF34F02D2A2D50D8B496
:1068380020EF34F022EF34F0F1EF33F0120041ECA6
:106848002FF0D00E90EC30F0000E90EC30F041ECD0
:106858002FF0D10E90EC30F0010EBFEC32F07F0B30
:106868000A6E3A0E626E0A503BEC2FF0636E0A50C5
:1068780036EC2FF0646E000E656E010EBFEC32F040
:106888007F0B0A6E3A0E5F6E0A503BEC2FF0606E7B
:106898000A5036EC2FF0616E010EBFEC32F03F0B60
:1068A8000A6E0A503BEC2FF05D6E0A5036EC2FF062
:1068B8005E6E010EBFEC32F0010EBFEC32F03F0B02
:1068C8000A6E0A503BEC2FF0736E0A5036EC2FF02C
:1068D800746E010EBFEC32F01F0B0A6E2F0E756E30
:1068E8000A503BEC2FF0766E0A5036EC2FF0776E9C
:1068F800000EBFEC32F00A6E2F0E786E0A503BEC99
:106908002FF0796E0A5036EC2FF07A6E000E7B6EFF
:1069180049EC2FF0120020EE80F010EE0DF02F0E53
:10692800DBCFE3FFE806FCE2400E9AEC2FF0000E06
:106938003E6E0D0E3E24D96EDA6A000EDA22DF5062
:10694800AFEC2FF03E2A2F0E3E64ADEF34F0AFEFE0
:1069580034F09DEF34F0970E9AEC2FF0000EAFEC68
:106968002FF0010EAFEC2FF0020EAFEC2FF0D70E88
:106978009AEC2FF0030EAFEC2FF0040EAFEC2FF0D3
:10698800050EAFEC2FF0EA0E086E7F0E096ECBEC09
:1069980031F0000E3D6E000E3E6E000E026E960E39
:1069A800016EEEEC30F0180E9AEC2FF03E2A160E1F
:1069B8003E64E1EF34F0E3EF34F0D1EF34F0000E51
:1069C8003E6E000E026E960E016EEEEC30F01C0E5E
:1069D8009AEC2FF03E2A170E3E64F5EF34F0F7EFED
:1069E80034F0E5EF34F03D2A3D50D8B4FEEF34F0F2
:1069F80000EF35F0CFEF34F0120021EE00F010EE8A
:106A08000DF0370EDBCFE3FFE806FCE2400E9AEC10
:106A18002FF0000E466E0D0E4624D96EDA6A000E6F
:106A2800DA22DF50AFEC2FF0462A370E46641FEF0C
:106A380035F021EF35F00FEF35F0990E9AEC2FF085
:106A4800000EAFEC2FF0010EAFEC2FF0020EAFEC02
:106A58002FF0030EAFEC2FF0D90E9AEC2FF0040EA6
:106A6800AFEC2FF0050EAFEC2FF0060EAFEC2FF0C9
:106A7800F10E086E7F0E096ECBEC31F0000E456EFC
:106A8800000E466E000E026E960E016EEEEC30F0B1
:106A9800180E9AEC2FF0462A180E466456EF35F079
:106AA80058EF35F046EF35F0000E466E000E026ED8
:106AB800960E016EEEEC30F01C0E9AEC2FF0462A82
:106AC800190E46646AEF35F06CEF35F05AEF35F081
:106AD800452A4550D8B473EF35F075EF35F044EFDB
:106AE80035F01200000E0A6E08BE7FEF35F07DEF1C
:106AF80035F089EF35F0081E071E061E056C000EDE
:106B0800062207220822010E0A6E04BE90EF35F015
:106B18008EEF35F09AEF35F0041E031E021E016C4D
:106B2800000E022203220422010E0A1A000E0B6E26
:106B3800000E0C6E000E0D6E000E0E6E0550061047
:106B480007100810D8B4ABEF35F0ADEF35F0E3EF30
:106B580035F0010E096EB7EF35F0D89005360636D8
:106B680007360836092A08AEBCEF35F0BEEF35F017
:106B7800B1EF35F0D8900B360C360D360E36055081
:106B8800015C065002580750035808500458D8A012
:106B9800D0EF35F0D2EF35F0DBEF35F00550015E80
:106BA8000650025A0750035A0850045A0B80D890CE
:106BB8000832073206320532092EBEEF35F00A5088
:106BC800D8B4E9EF35F0EBEF35F0F3EF35F00E1E02
:106BD8000D1E0C1E0B6C000E0C220D220E220BC07B
:106BE80001F00CC002F00DC003F00EC004F012005A
:106BF800000E956E000E026E020E016E000E046EFF
:106C0800000E036E88EC38F0000E026E030E016E63
:106C1800000E046E000E036E88EC38F0000E026E53
:106C2800040E016E000E046E000E036E88EC38F040
:106C3800000E026E050E016E000E046E000E036E4D
:106C480088EC38F0000E836E86EF36F0950E7024CF
:106C5800F66EF76A7E0EF7220800F5CF83FF000E66
:106C6800026E020E016E000E046E010E036E88ECB9
:106C780038F0010E716EA3EF36F0950E6F24F66EA4
:106C8800F76A7E0EF7220800F5CF83FF000E026E2A
:106C9800030E016E000E046E010E036E88EC38F0D0
:106CA800020E716EA3EF36F0950E6E24F66EF76A3B
:106CB8007E0EF7220800F5CF83FF000E026E040E49
:106CC800016E000E046E010E036E88EC38F0030EA0
:106CD800716EA3EF36F0950E6D24F66EF76A7E0E90
:106CE800F7220800F5CF83FF000E026E050E016E35
:106CF800000E046E010E036E88EC38F0000E716E03
:106D0800A3EF36F07150076E086A0850000AD8B42D
:106D180090EF36F082EF36F00750000AD8B42AEF29
:106D280036F0010AD8B441EF36F0030AD8B458EF68
:106D380036F0010AD8B46FEF36F082EF36F0120061
:106D480083CF06F00F0E9512000E0A6EF80E9316FA
:106D58000AC001F0010E026E012AB5EF36F0D89094
:106D68000236012EB3EF36F002509312070E81124D
:106D78000AC001F0010E026E012AC5EF36F0D89064
:106D88000236012EC3EF36F00250FF0A8116000EBC
:106D9800086E000E076E074A082A08BEDDEF36F0B7
:106DA800085009E10A0E075CD8A0DDEF36F0DFEFE6
:106DB80036F0CFEF36F0000E096E09C001F0010E73
:106DC800026E012AEAEF36F0D8900236012EE8EF7B
:106DD80036F0025083140009D8A4F5EF36F0F7EF27
:106DE80036F00FEF37F00A50040DF3500924016E06
:106DF800010E026E000E036E012A06EF37F0D890DE
:106E080002360336012E03EF37F0025069120350A1
:106E18006A1229EF37F00A50040DF3500924016E65
:106E2800010E026E000E036E012A1EEF37F0D89095
:106E380002360336012E1BEF37F0021C046E031CCA
:106E4800056E0450691605506A16092A030E09646E
:106E580030EF37F032EF37F0E1EF36F00A2A020E62
:106E68000A6439EF37F03BEF37F0AAEF36F0695094
:106E7800671807E16A506818D8A445EF37F047EF5C
:106E880037F04AEF37F0720650EF37F00A0E726E9D
:106E980069C067F06AC068F07250D8A456EF37F03E
:106EA80058EF37F05CEF37F067C06BF068C06CF0F4
:106EB80006C083FF000E956E120002BE6FEF37F01A
:106EC800025007E1080E015CD8B06DEF37F06FEFA4
:106ED80037F099EF37F003500410D8B476EF37F055
:106EE80078EF37F088EF37F001C005F0010E066E35
:106EF800052A81EF37F0D8900636052E7FEF37F058
:106F08000650921287EF38F001C005F0010E066EA8
:106F1800052A91EF37F0D8900636052E8FEF37F017
:106F28000650FF0A921687EF38F002BEA7EF37F037
:106F3800025007E1100E015CD8B0A5EF37F0A7EFBB
:106F480037F0D5EF37F003500410D8B4AEEF37F070
:106F5800B0EF37F0C2EF37F001C005F0F80E0526A4
:106F6800010E066E052ABBEF37F0D8900636052EBF
:106F7800B9EF37F00650931287EF38F001C005F0EB
:106F8800F80E0526010E066E052ACDEF37F0D890CB
:106F98000636052ECBEF37F00650FF0A931687EF1B
:106FA80038F002BEE3EF37F0025007E1180E015C3B
:106FB800D8B0E1EF37F0E3EF37F011EF38F00350D6
:106FC8000410D8B4EAEF37F0ECEF37F0FEEF37F003
:106FD80001C005F0F00E0526010E066E052AF7EF32
:106FE80037F0D8900636052EF5EF37F00650941294
:106FF80087EF38F001C005F0F00E0526010E066E89
:10700800052A09EF38F0D8900636052E07EF38F034
:107018000650FF0A941687EF38F002BE1FEF38F0CB
:10702800025007E1200E015CD8B01DEF38F01FEFC9
:1070380038F04DEF38F003500410D8B426EF38F08C
:1070480028EF38F03AEF38F001C005F0E80E0526D1
:10705800010E066E052A33EF38F0D8900636052E55
:1070680031EF38F00650951287EF38F001C005F07F
:10707800E80E0526010E066E052A45EF38F0D89071
:107088000636052E43EF38F00650FF0A951687EFAF
:1070980038F002BE5BEF38F0025007E1280E015CC1
:1070A800D8B059EF38F05BEF38F087EF38F003507D
:1070B8000410D8B462EF38F064EF38F076EF38F0A7
:1070C80001C005F0E00E0526010E066E052A6FEFD9
:1070D80038F0D8900636052E6DEF38F00650961227
:1070E80087EF38F001C005F0E00E0526010E066EA8
:1070F800052A81EF38F0D8900636052E7FEF38F054
:107108000650FF0A9616120002BE96EF38F002509B
:1071180007E1080E015CD8B094EF38F096EF38F02C
:10712800C0EF38F003500410D8B49DEF38F09FEF4B
:1071380038F0AFEF38F001C005F0010E066E052AF1
:10714800A8EF38F0D8900636052EA6EF38F006508E
:107158008012AEEF39F001C005F0010E066E052A67
:10716800B8EF38F0D8900636052EB6EF38F006504E
:10717800FF0A8016AEEF39F002BECEEF38F00250AB
:1071880007E1100E015CD8B0CCEF38F0CEEF38F044
:10719800FCEF38F0F80E0126FF0E0222035004100F
:1071A800D8B4D9EF38F0DBEF38F0EBEF38F001C0A6
:1071B80005F0010E066E052AE4EF38F0D890063681
:1071C800052EE2EF38F006508112AEEF39F001C01B
:1071D80005F0010E066E052AF4EF38F0D890063651
:1071E800052EF2EF38F00650FF0A8116AEEF39F09F
:1071F80002BE0AEF39F0025007E1180E015CD8B060
:1072080008EF39F00AEF39F038EF39F0F00E0126BF
:10721800FF0E022203500410D8B415EF39F017EF0F
:1072280039F027EF39F001C005F0010E066E052A86
:1072380020EF39F0D8900636052E1EEF39F00650AB
:107248008212AEEF39F001C005F0010E066E052A74
:1072580030EF39F0D8900636052E2EEF39F006506B
:10726800FF0A8216AEEF39F002BE46EF39F002503F
:1072780007E1200E015CD8B044EF39F046EF39F051
:1072880074EF39F0E80E0126FF0E022203500410B5
:10729800D8B451EF39F053EF39F063EF39F001C04A
:1072A80005F0010E066E052A5CEF39F0D890063617
:1072B800052E5AEF39F006508312AEEF39F001C0AF
:1072C80005F0010E066E052A6CEF39F0D8900636E7
:1072D800052E6AEF39F00650FF0A8316AEEF39F033
:1072E80002BE82EF39F0025007E1280E015CD8B0E7
:1072F80080EF39F082EF39F0AEEF39F0E00E012679
:10730800FF0E022203500410D8B48DEF39F08FEF2E
:1073180039F09FEF39F001C005F0010E066E052A1D
:1073280098EF39F0D8900636052E96EF39F00650CA
:107338008412AEEF39F001C005F0010E066E052A81
:10734800A8EF39F0D8900636052EA6EF39F006508A
:10735800FF0A84161200000E956E000E966E000E3F
:10736800836E000E966EC30E926E030E936E010E20
:10737800946E070E5B6ED00E5A6E000E536E000EA2
:10738800526E000E4C6E000E4B6E300E566E300E66
:10739800576E310E546E300E4E6E300E4F6E300EEC
:1073A800506E300E516E62EC30F00C0E9AEC2FF0ED
:1073B800990E086E7F0E096ECBEC31F0C00E9AEC78
:1073C8002FF08B0E086E7F0E096ECBEC31F0000E9D
:1073D800086E020E076E07EC32F0010E9AEC2FF0E1
:1073E80043EC32F0000E4D6E4D50D8B4FEEF39F03C
:1073F80000EF3AF002EF3AF035EF3AF0000E5C6E2B
:107408001C0E5C640AEF3AF00CEF3AF00EEF3AF01B
:107418001AEF3AF0000E026E640E016EEEEC30F0D8
:10742800180E9AEC2FF05C2A04EF3AF0000E5C6E0E
:107438001C0E5C6422EF3AF024EF3AF026EF3AF0A3
:1074480032EF3AF0000E026E640E016EEEEC30F090
:107458001C0E9AEC2FF05C2A1CEF3AF04D2AF8EF3C
:1074680039F0400E9AEC2FF0800E9AEC2FF07D0E3A
:10747800086E7F0E096ECBEC31F0C00E9AEC2FF03F
:1074880023EC34F0730E086E000E096ECBEC31F06D
:10749800900E9AEC2FF0080E086E7F0E096ECBEC5A
:1074A80031F0D00E9AEC2FF0190E086E7F0E096E8F
:1074B800CBEC31F059EC2FF0E0EC2FF02CEC2FF066
:1074C80028EC2FF0A4EC36F031EC2FF002A06FEF8F
:1074D8003AF071EF3AF066EF3AF0000E0F6E030ED5
:1074E800046EE80E036E5AC001F05BC002F058EC5F
:1074F80033F001C009F002C00AF0000E0C6E0A0E4B
:107508000B6E00EC33F0095036EC30F0010E5C6E77
:107518005C50D8A492EF3AF094EF3AF096EF3AF034
:10752800A6EF3AF05CC081FF5CC083FF000E026EDC
:10753800640E016EEEEC30F05C50020DF3CF5CF09F
:107548008CEF3AF0000E816E000E836E000E5C6EBA
:10755800010E5C64B2EF3AF0B4EF3AF0B6EF3AF0ED
:10756800C3EF3AF0FF0E811AFF0E831A000E026E67
:10757800C80E016EEEEC30F05C2AACEF3AF028EC65
:107588002FF0000E596E010E586E130E026E880E03
:10759800016E63EC2FF058045910D8A4D6EF3AF0D6
:1075A800D8EF3AF079EF3BF0494A4A2A4A5009E1C4
:1075B800C80E495CD8A0E3EF3AF0E5EF3AF079EF6E
:1075C8003BF05A06D8A05B065BBEF5EF3AF05B507D
:1075D80006E15A04D8B0F3EF3AF0F5EF3AF0F9EFD4
:1075E8003AF0000E536E010E526E000E046E0A0E33
:1075F800036E5AC001F05BC002F058EC33F001C0D2
:1076080009F002C00AF0000E0C6E0A0E0B6E00ECB8
:1076180033F0090E09180A10D8A415EF3BF017EF3C
:107628003BF01BEF3BF0D80E5A26FF0E5B22000EF4
:107638000F6E030E046EE80E036E5AC001F05BC0B5
:1076480002F058EC33F001C009F002C00AF0000E55
:107658000C6E0A0E0B6E00EC33F0095036EC30F06D
:10766800010E0F6E000E046E640E036E5AC001F018
:107678005BC002F058EC33F001C009F002C00AF018
:10768800000E0C6E0A0E0B6E00EC33F0095036EC4F
:1076980030F0020E0F6E000E046E0A0E036E5AC012
:1076A80001F05BC002F058EC33F001C009F002C0F1
:1076B8000AF0000E0C6E0A0E0B6E00EC33F0095047
:1076C80036EC30F0030E0F6E5AC009F05BC00AF0BA
:1076D800000E0C6E0A0E0B6E00EC33F0095036ECFF
:1076E80030F0000E4A6E000E496EA4EC36F031EC14
:1076F8002FF04750011809E148500218D8B487EF15
:107708003BF089EF3BF07EEF3EF031EC2FF001C00B
:1077180047F002C048F031EC2FF002A096EF3BF0A2
:1077280098EF3BF0A7EF3BF057C00DF054C00EF0B8
:10773800565090EC31F0000E596E010E586E000E46
:107748004C6E010E4B6E31EC2FF001A6AEEF3BF004
:10775800B0EF3BF029EF3CF058045910D8A4B7EF2C
:107768003BF0B9EF3BF029EF3CF0000E596E000EEC
:10777800586E800E9AEC2FF0DC0E086E7E0E096EA5
:10778800CBEC31F0990E9AEC2FF0562A5650AFEC0C
:107798002FF0200E20EC31F0270E106E100E0F6E19
:1077A80087EC2FF0000E556E020E5564DEEF3BF0AD
:1077B800E0EF3BF0E2EF3BF009EF3CF0010E5C6ECE
:1077C8005C50D8A4EAEF3BF0ECEF3BF0EEEF3BF077
:1077D80005EF3CF094825CC081FF5CC083FF000E23
:1077E800026E640E016EEEEC30F05C50020DF3CFC9
:1077F8005CF05C50D8A403EF3CF005EF3CF0EEEFF2
:107808003BF09492552AD8EF3BF0000E816E000EA3
:10781800836E000E5C6E010E5C6415EF3CF017EF92
:107828003CF019EF3CF026EF3CF0FF0E811AFF0EFA
:10783800831A000E026EC80E016EEEEC30F05C2A60
:107848000FEF3CF0000E20EC31F031EC2FF001AEE0
:1078580030EF3CF032EF3CF0ABEF3CF058045910FD
:10786800D8A439EF3CF03BEF3CF0ABEF3CF0000E16
:10787800596E000E586E800E9AEC2FF0ED0E086EC1
:107888007E0E096ECBEC31F0D90E9AEC2FF0572A08
:107898005750AFEC2FF0200E20EC31F0270E106E71
:1078A800100E0F6E87EC2FF0000E556E020E556409
:1078B80060EF3CF062EF3CF064EF3CF08BEF3CF0A3
:1078C800010E5C6E5C50D8A46CEF3CF06EEF3CF09F
:1078D80070EF3CF087EF3CF094825CC081FF5CC0A5
:1078E80083FF000E026E640E016EEEEC30F05C5009
:1078F800020DF3CF5CF05C50D8A485EF3CF087EF25
:107908003CF070EF3CF09492552A5AEF3CF0000E90
:10791800816E000E836E000E5C6E010E5C6497EF44
:107928003CF099EF3CF09BEF3CF0A8EF3CF0FF0EE9
:10793800811AFF0E831A000E026EC80E016EEEEC5D
:1079480030F05C2A91EF3CF0000E20EC31F031EC85
:107958002FF001A4B2EF3CF0B4EF3CF0CAEF3CF0DA
:1079680058045910D8A4BBEF3CF0BDEF3CF0CAEF67
:107978003CF0000E596E000E586E800E9AEC2FF0F7
:10798800500E086E7F0E096ECBEC31F031EC2FF003
:1079980001ACD1EF3CF0D3EF3CF020EF3DF05804C0
:1079A8005910D8A4DAEF3CF0DCEF3CF020EF3DF0C2
:1079B800000E596E000E586E000E4C6E000E4B6E87
:1079C800800E9AEC2FF0200E086E7F0E096ECBEC1D
:1079D80031F0C00E9AEC2FF0400E086E7F0E096E43
:1079E800CBEC31F0970E9AEC2FF0F60E086E7F0E66
:1079F800096ECBEC31F05050AFEC2FF0FA0E086E58
:107A08007F0E096ECBEC31F04E50AFEC2FF0D70E55
:107A18009AEC2FF0F60E086E7F0E096ECBEC31F063
:107A28005150AFEC2FF0FA0E086E7F0E096ECBECBA
:107A380031F04F50AFEC2FF04B504C10D8A427EF3B
:107A48003DF029EF3DF0C0EF3DF031EC2FF001A6FD
:107A580030EF3DF032EF3DF04EEF3DF0800E9AEC06
:107A68002FF0FE0E086E7E0E096ECBEC31F0502A18
:107A78009A0E9AEC2FF05050AFEC2FF00A0E20EC33
:107A880031F0000E086E010E076E07EC32F0000EA2
:107A980020EC31F031EC2FF002A655EF3DF057EF16
:107AA8003DF076EF3DF09690800E9AEC2FF0BA0EEE
:107AB800086E7E0E096ECBEC31F04E2A9E0E9AECC3
:107AC8002FF04E50AFEC2FF00A0E20EC31F08470FE
:107AD800000E086E010E076E07EC32F08490000E5F
:107AE80020EC31F031EC2FF001A47DEF3DF07FEF79
:107AF8003DF098EF3DF09690800E9AEC2FF00F0E27
:107B0800086E7F0E096ECBEC31F0512ADA0E9AEC32
:107B18002FF05150AFEC2FF08470000E086E010E5C
:107B2800076E07EC32F0849031EC2FF002A49FEF3F
:107B38003DF0A1EF3DF0C0EF3DF09690800E9AEC3D
:107B48002FF0CB0E086E7E0E096ECBEC31F04F2A6B
:107B5800DE0E9AEC2FF04F50AFEC2FF00A0E20EC0F
:107B680031F08470000E086E010E076E07EC32F0DB
:107B78008490000E20EC31F058045910D8A4C7EFB7
:107B88003DF0C9EF3DF07EEF3EF05BBED5EF3DF036
:107B98005B5009E10B0E5A5CD8A0D5EF3DF0D7EF4A
:107BA8003DF07EEF3EF031EC2FF001B2DEEF3DF01C
:107BB800E0EF3DF0F2EF3DF031EC2FF001BAE7EFE6
:107BC8003DF0E9EF3DF0F2EF3DF031EC2FF002A28D
:107BD800F0EF3DF0F2EF3DF07EEF3EF0010E9AEC53
:107BE8002FF031EC2FF001A2FCEF3DF0FEEF3DF05D
:107BF80000EF3EF0BAEC33F031EC2FF001AA07EFBA
:107C08003EF009EF3EF00BEF3EF001EC35F031ECC1
:107C18002FF002A212EF3EF014EF3EF016EF3EF006
:107C28008FEC34F0010E9AEC2FF0FA0E5A26FF0E64
:107C38005B22000E0F6E030E046EE80E036E5AC030
:107C480001F05BC002F058EC33F001C009F002C04B
:107C58000AF0000E0C6E0A0E0B6E00EC33F00950A1
:107C680036EC30F0010E0F6E000E046E640E036EDB
:107C78005AC001F05BC002F058EC33F001C009F0C3
:107C880002C00AF0000E0C6E0A0E0B6E00EC33F008
:107C9800095036EC30F0020E0F6E000E046E0A0E1C
:107CA800036E5AC001F05BC002F058EC33F001C01B
:107CB80009F002C00AF0000E0C6E0A0E0B6E00EC02
:107CC80033F0095036EC30F0030E0F6E5AC009F04D
:107CD8005BC00AF0000E0C6E0A0E0B6E00EC33F05F
:107CE800095036EC30F057C00DF054C00EF0565025
:107CF80090EC31F052505310D8B485EF3EF087EF36
:107D08003EF0DAEF3EF0310E5418D8A48EEF3EF074
:107D180090EF3EF0DAEF3EF0000E596E000E586E0E
:107D2800010E9AEC2FF0800E9AEC2FF0DA0E086E06
:107D38007F0E096ECBEC31F0DF0EAFEC2FF0E30EC7
:107D4800086E7F0E096ECBEC31F0C00E9AEC2FF066
:107D5800B40E086E7F0E096ECBEC31F0900E9AECE3
:107D68002FF0080E086E7F0E096ECBEC31F0970EDF
:107D78009AEC2FF05650AFEC2FF0D00E9AEC2FF073
:107D8800190E086E7F0E096ECBEC31F0D70E9AEC07
:107D98002FF05750AFEC2FF0320E546E070E5B6E7B
:107DA800D00E5A6E000E536E000E526E5250531083
:107DB800D8B4E1EF3EF0E3EF3EF042EF3FF0320E91
:107DC8005418D8A4EAEF3EF0ECEF3EF042EF3FF053
:107DD800000E596E000E586E010E9AEC2FF0800EB0
:107DE8009AEC2FF0A90E086E7E0E096ECBEC31F0DE
:107DF800C00E9AEC2FF0A70E086E7F0E096ECBEC22
:107E080031F0900E9AEC2FF0080E086E7F0E096E76
:107E1800CBEC31F0970E9AEC2FF05650AFEC2FF0D8
:107E2800D00E9AEC2FF0190E086E7F0E096ECBEC6F
:107E380031F0D70E9AEC2FF05750AFEC2FF0000E20
:107E4800536E000E526E000E086E050E076E07EC9C
:107E580032F0010E9AEC2FF0800E9AEC2FF0300ED3
:107E6800086E7F0E096ECBEC31F0C00E9AEC2FF045
:107E78006E0E086E7F0E096ECBEC31F0FCEC35F01F
:107E880051EC2FF0C9EF3AF000EF00F0003F065B2D
:107E98004F666D7D077F6F777C395E7971010204CB
:107EA80000202046696D20646F204A6F676F20208C
:107EB800200043617274616F20562054696D6520FB
:107EC80041200043617274616F20562054696D65CA
:107ED80020422000476F6F6F6F6C2054696D6520DA
:107EE8004121212100476F6F6F6F6C2054696D65C8
:107EF80020422121210043617274616F20416D206D
:107F080054696D6520410043617274616F20416D51
:107F18002054696D65204200202020202046616C95
:107F280074612020202020005072657373696F6E81
:107F380065205245534554004E756D65726F732028
:107F4800436172746F657300202020426F6C61205A
:107F5800466F72612020002020456D20416E6461CB
:107F68006D656E746F0050617261207265696E692B
:107F780063696172004C6F63616C3A20556E696683
:107F8800656900506C616361722046757473616C39
:107F980000496E696369616C697A616E646F00504B
:107FA8006C616361722046696E616C00496E74652C
:107FB8007276616C6F0043686576726F6C657400E9
:107FC80054696D652041202D0054696D652042205B
:107FD8002D0046696D20646F2031002054656D7056
:107FE8006F00616469646173004E494B450020412C
:077FF8003A0020563A000098
:020000040020DA
:08000000FFFFFFFFFFFFFFFF00
:020000040030CA
:0E000000FF021F00FF8381FF0FC00FE00F40C3
:00000001FF
